{
  "address": "0x7762A721C6B341732920a4b09ebf4a6bd2f8985C",
  "abi": [
    {
      "inputs": [],
      "stateMutability": "nonpayable",
      "type": "constructor"
    },
    {
      "inputs": [],
      "name": "AmountMustBeBiggerThanZeroError",
      "type": "error"
    },
    {
      "inputs": [],
      "name": "InvalidMerkelProofError",
      "type": "error"
    },
    {
      "inputs": [],
      "name": "LessBalanceError",
      "type": "error"
    },
    {
      "inputs": [],
      "name": "MerkleRootCanNotBeZeroError",
      "type": "error"
    },
    {
      "inputs": [],
      "name": "NoAmountLeftToClaimError",
      "type": "error"
    },
    {
      "inputs": [
        {
          "internalType": "address",
          "name": "owner",
          "type": "address"
        }
      ],
      "name": "OwnableInvalidOwner",
      "type": "error"
    },
    {
      "inputs": [
        {
          "internalType": "address",
          "name": "account",
          "type": "address"
        }
      ],
      "name": "OwnableUnauthorizedAccount",
      "type": "error"
    },
    {
      "inputs": [],
      "name": "ZeroAddressError",
      "type": "error"
    },
    {
      "anonymous": false,
      "inputs": [
        {
          "indexed": true,
          "internalType": "bytes32",
          "name": "newMerkleRoot",
          "type": "bytes32"
        }
      ],
      "name": "MerkleRootUpdated",
      "type": "event"
    },
    {
      "anonymous": false,
      "inputs": [
        {
          "indexed": true,
          "internalType": "address",
          "name": "previousOwner",
          "type": "address"
        },
        {
          "indexed": true,
          "internalType": "address",
          "name": "newOwner",
          "type": "address"
        }
      ],
      "name": "OwnershipTransferred",
      "type": "event"
    },
    {
      "anonymous": false,
      "inputs": [
        {
          "indexed": true,
          "internalType": "address",
          "name": "user",
          "type": "address"
        },
        {
          "indexed": true,
          "internalType": "address",
          "name": "token",
          "type": "address"
        },
        {
          "indexed": false,
          "internalType": "uint256",
          "name": "amount",
          "type": "uint256"
        }
      ],
      "name": "TokensClaimed",
      "type": "event"
    },
    {
      "inputs": [
        {
          "internalType": "address",
          "name": "token",
          "type": "address"
        },
        {
          "internalType": "uint256",
          "name": "amount",
          "type": "uint256"
        },
        {
          "internalType": "bytes32[]",
          "name": "proof",
          "type": "bytes32[]"
        }
      ],
      "name": "claimTokens",
      "outputs": [],
      "stateMutability": "nonpayable",
      "type": "function"
    },
    {
      "inputs": [
        {
          "internalType": "address",
          "name": "",
          "type": "address"
        },
        {
          "internalType": "address",
          "name": "",
          "type": "address"
        }
      ],
      "name": "claimedAmounts",
      "outputs": [
        {
          "internalType": "uint256",
          "name": "",
          "type": "uint256"
        }
      ],
      "stateMutability": "view",
      "type": "function"
    },
    {
      "inputs": [],
      "name": "merkleRoot",
      "outputs": [
        {
          "internalType": "bytes32",
          "name": "",
          "type": "bytes32"
        }
      ],
      "stateMutability": "view",
      "type": "function"
    },
    {
      "inputs": [],
      "name": "owner",
      "outputs": [
        {
          "internalType": "address",
          "name": "",
          "type": "address"
        }
      ],
      "stateMutability": "view",
      "type": "function"
    },
    {
      "inputs": [],
      "name": "renounceOwnership",
      "outputs": [],
      "stateMutability": "nonpayable",
      "type": "function"
    },
    {
      "inputs": [
        {
          "internalType": "address",
          "name": "newOwner",
          "type": "address"
        }
      ],
      "name": "transferOwnership",
      "outputs": [],
      "stateMutability": "nonpayable",
      "type": "function"
    },
    {
      "inputs": [
        {
          "internalType": "bytes32",
          "name": "_newMerkleRoot",
          "type": "bytes32"
        }
      ],
      "name": "updateMerkleRoot",
      "outputs": [],
      "stateMutability": "nonpayable",
      "type": "function"
    },
    {
      "inputs": [
        {
          "internalType": "address",
          "name": "token",
          "type": "address"
        },
        {
          "internalType": "uint256",
          "name": "amount",
          "type": "uint256"
        }
      ],
      "name": "withdrawTokens",
      "outputs": [],
      "stateMutability": "nonpayable",
      "type": "function"
    }
  ],
  "transactionHash": "0x3fe2dfdbdd95ed0d386cb149357761e13461f562c17a0b87b7d24c28e6f0a29c",
  "args": [],
  "numDeployments": 1,
  "solcInputHash": "e884b0c9e13ab9f0e9270eefb0d9768c",
  "bytecode": "0x60806040523480156200001157600080fd5b5033600073ffffffffffffffffffffffffffffffffffffffff168173ffffffffffffffffffffffffffffffffffffffff1603620000885760006040517f1e4fbdf70000000000000000000000000000000000000000000000000000000081526004016200007f9190620001d6565b60405180910390fd5b6200009981620000cd60201b60201c565b50604051602001620000ab9062000228565b604051602081830303815290604052805190602001206001819055506200023f565b60008060009054906101000a900473ffffffffffffffffffffffffffffffffffffffff169050816000806101000a81548173ffffffffffffffffffffffffffffffffffffffff021916908373ffffffffffffffffffffffffffffffffffffffff1602179055508173ffffffffffffffffffffffffffffffffffffffff168173ffffffffffffffffffffffffffffffffffffffff167f8be0079c531659141344cd1fd0a4f28419497f9722a3daafe3b4186f6b6457e060405160405180910390a35050565b600073ffffffffffffffffffffffffffffffffffffffff82169050919050565b6000620001be8262000191565b9050919050565b620001d081620001b1565b82525050565b6000602082019050620001ed6000830184620001c5565b92915050565b600081905092915050565b50565b600062000210600083620001f3565b91506200021d82620001fe565b600082019050919050565b6000620002358262000201565b9150819050919050565b610f1b806200024f6000396000f3fe608060405234801561001057600080fd5b50600436106100885760003560e01c80638da5cb5b1161005b5780638da5cb5b146100ed578063c253b5da1461010b578063cfb4a1fc1461013b578063f2fde38b1461015757610088565b806306b091f91461008d5780632eb4a7ab146100a95780634783f0ef146100c7578063715018a6146100e3575b600080fd5b6100a760048036038101906100a29190610ae5565b610173565b005b6100b161029e565b6040516100be9190610b3e565b60405180910390f35b6100e160048036038101906100dc9190610b85565b6102a4565b005b6100eb61031f565b005b6100f5610333565b6040516101029190610bc1565b60405180910390f35b61012560048036038101906101209190610bdc565b61035c565b6040516101329190610c2b565b60405180910390f35b61015560048036038101906101509190610cab565b610381565b005b610171600480360381019061016c9190610d1f565b6107c5565b005b61017b61084b565b600073ffffffffffffffffffffffffffffffffffffffff168273ffffffffffffffffffffffffffffffffffffffff16036101e1576040517f3efa09af00000000000000000000000000000000000000000000000000000000815260040160405180910390fd5b6000810361021b576040517f03a4725100000000000000000000000000000000000000000000000000000000815260040160405180910390fd5b8173ffffffffffffffffffffffffffffffffffffffff1663a9059cbb33836040518363ffffffff1660e01b8152600401610256929190610d4c565b6020604051808303816000875af1158015610275573d6000803e3d6000fd5b505050506040513d601f19601f820116820180604052508101906102999190610dad565b505050565b60015481565b6102ac61084b565b6000801b81036102e8576040517f6126d8ff00000000000000000000000000000000000000000000000000000000815260040160405180910390fd5b80600181905550807f90004c04698bc3322499a575ed3752dd4abf33e0a7294c06a787a0fe01bea94160405160405180910390a250565b61032761084b565b61033160006108d2565b565b60008060009054906101000a900473ffffffffffffffffffffffffffffffffffffffff16905090565b6002602052816000526040600020602052806000526040600020600091509150505481565b600073ffffffffffffffffffffffffffffffffffffffff168473ffffffffffffffffffffffffffffffffffffffff16036103e7576040517f3efa09af00000000000000000000000000000000000000000000000000000000815260040160405180910390fd5b60008303610421576040517f03a4725100000000000000000000000000000000000000000000000000000000815260040160405180910390fd5b600033858560405160200161043893929190610dda565b60405160208183030381529060405280519060200120905061049e838380806020026020016040519081016040528093929190818152602001838360200280828437600081840152601f19601f8201169050808301925050505050505060015483610996565b6104d4576040517f43e7214500000000000000000000000000000000000000000000000000000000815260040160405180910390fd5b6000600260003373ffffffffffffffffffffffffffffffffffffffff1673ffffffffffffffffffffffffffffffffffffffff16815260200190815260200160002060008773ffffffffffffffffffffffffffffffffffffffff1673ffffffffffffffffffffffffffffffffffffffff16815260200190815260200160002054905084811061058e576040517fbe37fe2100000000000000000000000000000000000000000000000000000000815260040160405180910390fd5b6000818661059c9190610e40565b905085600260003373ffffffffffffffffffffffffffffffffffffffff1673ffffffffffffffffffffffffffffffffffffffff16815260200190815260200160002060008973ffffffffffffffffffffffffffffffffffffffff1673ffffffffffffffffffffffffffffffffffffffff1681526020019081526020016000208190555060008773ffffffffffffffffffffffffffffffffffffffff166370a08231306040518263ffffffff1660e01b815260040161065a9190610bc1565b602060405180830381865afa158015610677573d6000803e3d6000fd5b505050506040513d601f19601f8201168201806040525081019061069b9190610e89565b9050818110156106d7576040517f94e6e42b00000000000000000000000000000000000000000000000000000000815260040160405180910390fd5b8773ffffffffffffffffffffffffffffffffffffffff1663a9059cbb33846040518363ffffffff1660e01b8152600401610712929190610d4c565b6020604051808303816000875af1158015610731573d6000803e3d6000fd5b505050506040513d601f19601f820116820180604052508101906107559190610dad565b508773ffffffffffffffffffffffffffffffffffffffff163373ffffffffffffffffffffffffffffffffffffffff167fa86305abc2db271df4609aa86a8d044bc11fb36939841bfdad6c1ab2b26e9471846040516107b39190610c2b565b60405180910390a35050505050505050565b6107cd61084b565b600073ffffffffffffffffffffffffffffffffffffffff168173ffffffffffffffffffffffffffffffffffffffff160361083f5760006040517f1e4fbdf70000000000000000000000000000000000000000000000000000000081526004016108369190610bc1565b60405180910390fd5b610848816108d2565b50565b6108536109ad565b73ffffffffffffffffffffffffffffffffffffffff16610871610333565b73ffffffffffffffffffffffffffffffffffffffff16146108d0576108946109ad565b6040517f118cdaa70000000000000000000000000000000000000000000000000000000081526004016108c79190610bc1565b60405180910390fd5b565b60008060009054906101000a900473ffffffffffffffffffffffffffffffffffffffff169050816000806101000a81548173ffffffffffffffffffffffffffffffffffffffff021916908373ffffffffffffffffffffffffffffffffffffffff1602179055508173ffffffffffffffffffffffffffffffffffffffff168173ffffffffffffffffffffffffffffffffffffffff167f8be0079c531659141344cd1fd0a4f28419497f9722a3daafe3b4186f6b6457e060405160405180910390a35050565b6000826109a385846109b5565b1490509392505050565b600033905090565b60008082905060005b84518110156109fa576109eb828683815181106109de576109dd610eb6565b5b6020026020010151610a05565b915080806001019150506109be565b508091505092915050565b6000818310610a1d57610a188284610a30565b610a28565b610a278383610a30565b5b905092915050565b600082600052816020526040600020905092915050565b600080fd5b600080fd5b600073ffffffffffffffffffffffffffffffffffffffff82169050919050565b6000610a7c82610a51565b9050919050565b610a8c81610a71565b8114610a9757600080fd5b50565b600081359050610aa981610a83565b92915050565b6000819050919050565b610ac281610aaf565b8114610acd57600080fd5b50565b600081359050610adf81610ab9565b92915050565b60008060408385031215610afc57610afb610a47565b5b6000610b0a85828601610a9a565b9250506020610b1b85828601610ad0565b9150509250929050565b6000819050919050565b610b3881610b25565b82525050565b6000602082019050610b536000830184610b2f565b92915050565b610b6281610b25565b8114610b6d57600080fd5b50565b600081359050610b7f81610b59565b92915050565b600060208284031215610b9b57610b9a610a47565b5b6000610ba984828501610b70565b91505092915050565b610bbb81610a71565b82525050565b6000602082019050610bd66000830184610bb2565b92915050565b60008060408385031215610bf357610bf2610a47565b5b6000610c0185828601610a9a565b9250506020610c1285828601610a9a565b9150509250929050565b610c2581610aaf565b82525050565b6000602082019050610c406000830184610c1c565b92915050565b600080fd5b600080fd5b600080fd5b60008083601f840112610c6b57610c6a610c46565b5b8235905067ffffffffffffffff811115610c8857610c87610c4b565b5b602083019150836020820283011115610ca457610ca3610c50565b5b9250929050565b60008060008060608587031215610cc557610cc4610a47565b5b6000610cd387828801610a9a565b9450506020610ce487828801610ad0565b935050604085013567ffffffffffffffff811115610d0557610d04610a4c565b5b610d1187828801610c55565b925092505092959194509250565b600060208284031215610d3557610d34610a47565b5b6000610d4384828501610a9a565b91505092915050565b6000604082019050610d616000830185610bb2565b610d6e6020830184610c1c565b9392505050565b60008115159050919050565b610d8a81610d75565b8114610d9557600080fd5b50565b600081519050610da781610d81565b92915050565b600060208284031215610dc357610dc2610a47565b5b6000610dd184828501610d98565b91505092915050565b6000606082019050610def6000830186610bb2565b610dfc6020830185610bb2565b610e096040830184610c1c565b949350505050565b7f4e487b7100000000000000000000000000000000000000000000000000000000600052601160045260246000fd5b6000610e4b82610aaf565b9150610e5683610aaf565b9250828203905081811115610e6e57610e6d610e11565b5b92915050565b600081519050610e8381610ab9565b92915050565b600060208284031215610e9f57610e9e610a47565b5b6000610ead84828501610e74565b91505092915050565b7f4e487b7100000000000000000000000000000000000000000000000000000000600052603260045260246000fdfea2646970667358221220fb06c3167aaf12f75ede21793dbea6b1f7050bc46bebe08deb8c66b92e07184f64736f6c63430008180033",
  "devdoc": {
    "errors": {
      "OwnableInvalidOwner(address)": [
        {
          "details": "The owner is not a valid owner account. (eg. `address(0)`)"
        }
      ],
      "OwnableUnauthorizedAccount(address)": [
        {
          "details": "The caller account is not authorized to perform an operation."
        }
      ]
    },
    "kind": "dev",
    "methods": {
      "claimTokens(address,uint256,bytes32[])": {
        "details": "Claim tokens using a Merkle proof.",
        "params": {
          "amount": "The amount of tokens to claim.",
          "proof": "The Merkle proof for the claim.",
          "token": "The ERC20 token address."
        }
      },
      "owner()": {
        "details": "Returns the address of the current owner."
      },
      "renounceOwnership()": {
        "details": "Leaves the contract without owner. It will not be possible to call `onlyOwner` functions. Can only be called by the current owner. NOTE: Renouncing ownership will leave the contract without an owner, thereby disabling any functionality that is only available to the owner."
      },
      "transferOwnership(address)": {
        "details": "Transfers ownership of the contract to a new account (`newOwner`). Can only be called by the current owner."
      },
      "updateMerkleRoot(bytes32)": {
        "details": "Updates the Merkle root. Only the owner can update it."
      },
      "withdrawTokens(address,uint256)": {
        "details": "Withdraw tokens from the contract (onlyOwner).",
        "params": {
          "amount": "The amount of tokens to withdraw.",
          "token": "The ERC20 token address."
        }
      }
    },
    "version": 1
  },
  "userdoc": {
    "kind": "user",
    "methods": {},
    "version": 1
  },
  "storageLayout": {
    "storage": [
      {
        "astId": 8,
        "contract": "contracts/GameRewardDistributor.sol:GameRewardDistributor",
        "label": "_owner",
        "offset": 0,
        "slot": "0",
        "type": "t_address"
      },
      {
        "astId": 802,
        "contract": "contracts/GameRewardDistributor.sol:GameRewardDistributor",
        "label": "merkleRoot",
        "offset": 0,
        "slot": "1",
        "type": "t_bytes32"
      },
      {
        "astId": 808,
        "contract": "contracts/GameRewardDistributor.sol:GameRewardDistributor",
        "label": "claimedAmounts",
        "offset": 0,
        "slot": "2",
        "type": "t_mapping(t_address,t_mapping(t_address,t_uint256))"
      }
    ],
    "types": {
      "t_address": {
        "encoding": "inplace",
        "label": "address",
        "numberOfBytes": "20"
      },
      "t_bytes32": {
        "encoding": "inplace",
        "label": "bytes32",
        "numberOfBytes": "32"
      },
      "t_mapping(t_address,t_mapping(t_address,t_uint256))": {
        "encoding": "mapping",
        "key": "t_address",
        "label": "mapping(address => mapping(address => uint256))",
        "numberOfBytes": "32",
        "value": "t_mapping(t_address,t_uint256)"
      },
      "t_mapping(t_address,t_uint256)": {
        "encoding": "mapping",
        "key": "t_address",
        "label": "mapping(address => uint256)",
        "numberOfBytes": "32",
        "value": "t_uint256"
      },
      "t_uint256": {
        "encoding": "inplace",
        "label": "uint256",
        "numberOfBytes": "32"
      }
    }
  }
}